{
  "contractName": "DomainDelegateVerifier",
  "abi": [
    {
      "inputs": [
        {
          "name": "_registryAddress",
          "type": "address"
        }
      ],
      "payable": false,
      "stateMutability": "nonpayable",
      "type": "constructor"
    },
    {
      "constant": true,
      "inputs": [
        {
          "components": [
            {
              "name": "issuer",
              "type": "address"
            },
            {
              "name": "subject",
              "type": "address"
            },
            {
              "name": "domain",
              "type": "bytes32"
            },
            {
              "name": "type_hash",
              "type": "bytes32"
            },
            {
              "name": "validFrom",
              "type": "uint256"
            },
            {
              "name": "validTo",
              "type": "uint256"
            }
          ],
          "name": "delegate",
          "type": "tuple"
        }
      ],
      "name": "hash",
      "outputs": [
        {
          "name": "",
          "type": "bytes32"
        }
      ],
      "payable": false,
      "stateMutability": "pure",
      "type": "function"
    },
    {
      "constant": true,
      "inputs": [
        {
          "components": [
            {
              "name": "issuer",
              "type": "address"
            },
            {
              "name": "subject",
              "type": "address"
            },
            {
              "name": "domain",
              "type": "bytes32"
            },
            {
              "name": "type_hash",
              "type": "bytes32"
            },
            {
              "name": "validFrom",
              "type": "uint256"
            },
            {
              "name": "validTo",
              "type": "uint256"
            }
          ],
          "name": "_delegate",
          "type": "tuple"
        },
        {
          "name": "v",
          "type": "uint8"
        },
        {
          "name": "r",
          "type": "bytes32"
        },
        {
          "name": "s",
          "type": "bytes32"
        }
      ],
      "name": "verify",
      "outputs": [
        {
          "name": "",
          "type": "bool"
        }
      ],
      "payable": false,
      "stateMutability": "view",
      "type": "function"
    }
  ],
  "bytecode": "0x608060405234801561001057600080fd5b50604051602080610adb833981018060405261002f91908101906101c1565b6040805190810160405280601481526020017f454950373132446f6d61696e44656c65676174650000000000000000000000008152506040805190810160405280600181526020017f3100000000000000000000000000000000000000000000000000000000000000815250600130846100ee6080604051908101604052808781526020018681526020018581526020018473ffffffffffffffffffffffffffffffffffffffff1681525061013f640100000000026401000000009004565b600181905550806000806101000a81548173ffffffffffffffffffffffffffffffffffffffff021916908373ffffffffffffffffffffffffffffffffffffffff1602179055505050505050506102c2565b60006040518080610a89605291396052019050604051809103902082600001518051906020012083602001518051906020012084604001518560600151604051602001610190959493929190610217565b604051602081830303815290604052805190602001209050919050565b60006101b982516102b0565b905092915050565b6000602082840312156101d357600080fd5b60006101e1848285016101ad565b91505092915050565b6101f38161026a565b82525050565b6102028161027c565b82525050565b610211816102a6565b82525050565b600060a08201905061022c60008301886101f9565b61023960208301876101f9565b61024660408301866101f9565b6102536060830185610208565b61026060808301846101ea565b9695505050505050565b600061027582610286565b9050919050565b6000819050919050565b600073ffffffffffffffffffffffffffffffffffffffff82169050919050565b6000819050919050565b60006102bb82610286565b9050919050565b6107b8806102d16000396000f3fe608060405234801561001057600080fd5b5060043610610053576000357c010000000000000000000000000000000000000000000000000000000090048063c82c5eeb14610058578063d7fc8ee414610088575b600080fd5b610072600480360361006d91908101906104a9565b6100b8565b60405161007f91906105a5565b60405180910390f35b6100a2600480360361009d9190810190610480565b610147565b6040516100af91906105c0565b60405180910390f35b60006100c26102ee565b85905060006001546100d383610147565b60405160200180807f19010000000000000000000000000000000000000000000000000000000000008152506002018381526020018281526020019250505060405160208183030381529060405280519060200120905061013b8183600001518888886101b3565b92505050949350505050565b600060405180806107096076913960760190506040518091039020826000015183602001518460400151856060015186608001518760a0015160405160200161019697969594939291906105db565b604051602081830303815290604052805190602001209050919050565b60008060009054906101000a900473ffffffffffffffffffffffffffffffffffffffff1673ffffffffffffffffffffffffffffffffffffffff1663622b2a3c8660018988888860405160008152602001604052604051808581526020018460ff1660ff1681526020018381526020018281526020019450505050506020604051602081039080840390855afa158015610250573d6000803e3d6000fd5b505050602060405103516040518363ffffffff167c0100000000000000000000000000000000000000000000000000000000028152600401610293929190610570565b60206040518083038186803b1580156102ab57600080fd5b505afa1580156102bf573d6000803e3d6000fd5b505050506040513d601f19601f820116820180604052506102e39190810190610457565b905095945050505050565b60c060405190810160405280600073ffffffffffffffffffffffffffffffffffffffff168152602001600073ffffffffffffffffffffffffffffffffffffffff168152602001600080191681526020016000801916815260200160008152602001600081525090565b600061036382356106c9565b905092915050565b600061037782516106db565b905092915050565b600061038b82356106e7565b905092915050565b600060c082840312156103a557600080fd5b6103af60c061064a565b905060006103bf84828501610357565b60008301525060206103d384828501610357565b60208301525060406103e78482850161037f565b60408301525060606103fb8482850161037f565b606083015250608061040f8482850161042f565b60808301525060a06104238482850161042f565b60a08301525092915050565b600061043b82356106f1565b905092915050565b600061044f82356106fb565b905092915050565b60006020828403121561046957600080fd5b60006104778482850161036b565b91505092915050565b600060c0828403121561049257600080fd5b60006104a084828501610393565b91505092915050565b60008060008061012085870312156104c057600080fd5b60006104ce87828801610393565b94505060c06104df87828801610443565b93505060e06104f08782880161037f565b9250506101006105028782880161037f565b91505092959194509250565b61051781610677565b82525050565b61052681610689565b82525050565b61053581610695565b82525050565b7f766572694b657900000000000000000000000000000000000000000000000000815250565b61056a816106bf565b82525050565b6000606082019050610585600083018561050e565b6105916020830161053b565b61059e604083018461050e565b9392505050565b60006020820190506105ba600083018461051d565b92915050565b60006020820190506105d5600083018461052c565b92915050565b600060e0820190506105f0600083018a61052c565b6105fd602083018961050e565b61060a604083018861050e565b610617606083018761052c565b610624608083018661052c565b61063160a0830185610561565b61063e60c0830184610561565b98975050505050505050565b6000604051905081810181811067ffffffffffffffff8211171561066d57600080fd5b8060405250919050565b60006106828261069f565b9050919050565b60008115159050919050565b6000819050919050565b600073ffffffffffffffffffffffffffffffffffffffff82169050919050565b6000819050919050565b60006106d48261069f565b9050919050565b60008115159050919050565b6000819050919050565b6000819050919050565b600060ff8216905091905056fe446f6d61696e44656c65676174652861646472657373206973737565722c2061646472657373207375626a6563742c206279746573333220646f6d61696e2c206279746573333220747970655f686173682c2075696e743235362076616c696446726f6d2c2075696e743235362076616c6964546f29a265627a7a723058208fcf998e13c2c90942fa7c0e0870b404ad7a15f985b2eb3422506dc6f921020c6c6578706572696d656e74616cf50037454950373132446f6d61696e28737472696e67206e616d652c737472696e672076657273696f6e2c75696e7432353620636861696e49642c6164647265737320766572696679696e67436f6e747261637429",
  "source": "pragma solidity >=0.5.3 <0.6.0;\npragma experimental ABIEncoderV2;\nimport \"./AbstractClaimsVerifier.sol\";\nimport \"./claimTypes/DomainDelegateTypes.sol\";\n\ncontract DomainDelegateVerifier is AbstractClaimsVerifier, DomainDelegateTypes {\n\n  constructor (address _registryAddress) AbstractClaimsVerifier(\"EIP712DomainDelegate\", \"1\", 1, address(this), _registryAddress) public {}\n\n  function hash(DomainDelegate memory delegate) public pure returns (bytes32) {\n    return keccak256(\n      abi.encode(\n        DOMAIN_DELEGATE_TYPEHASH,\n        delegate.issuer,\n        delegate.subject,\n        delegate.domain,\n        delegate.type_hash,\n        delegate.validFrom,\n        delegate.validTo\n      )\n    );\n  }\n\n  function verify(DomainDelegate memory _delegate, uint8 v, bytes32 r, bytes32 s) public view returns (bool) {\n    DomainDelegate memory delegate = _delegate;\n    bytes32 digest = keccak256(\n      abi.encodePacked(\n        \"\\x19\\x01\",\n        DOMAIN_SEPARATOR,\n        hash(delegate)\n      )\n    );\n    return verifyIssuer(digest, delegate.issuer, v, r, s);\n  }\n\n}",
  "sourcePath": "/Users/pelleb/code/consensys/eip712VerifiableClaims/contracts/DomainDelegateVerifier.sol",
  "compiler": {
    "name": "solc",
    "version": "0.5.3+commit.10d17f24.Emscripten.clang"
  },
  "schemaVersion": "3.0.2",
  "updatedAt": "2019-03-02T00:30:33.538Z",
  "devdoc": {
    "methods": {}
  },
  "userdoc": {
    "methods": {}
  }
}