{
  "contractName": "IdentityClaimsVerifier",
  "abi": [
    {
      "inputs": [
        {
          "name": "_registryAddress",
          "type": "address"
        }
      ],
      "payable": false,
      "stateMutability": "nonpayable",
      "type": "constructor"
    },
    {
      "constant": true,
      "inputs": [
        {
          "components": [
            {
              "name": "issuer",
              "type": "address"
            },
            {
              "name": "subject",
              "type": "address"
            },
            {
              "name": "country",
              "type": "bytes2"
            },
            {
              "name": "loa",
              "type": "uint8"
            },
            {
              "name": "validFrom",
              "type": "uint256"
            },
            {
              "name": "validTo",
              "type": "uint256"
            }
          ],
          "name": "claim",
          "type": "tuple"
        },
        {
          "name": "v",
          "type": "uint8"
        },
        {
          "name": "r",
          "type": "bytes32"
        },
        {
          "name": "s",
          "type": "bytes32"
        }
      ],
      "name": "verify",
      "outputs": [
        {
          "name": "",
          "type": "bool"
        }
      ],
      "payable": false,
      "stateMutability": "view",
      "type": "function"
    },
    {
      "constant": true,
      "inputs": [
        {
          "components": [
            {
              "name": "issuer",
              "type": "address"
            },
            {
              "name": "subject",
              "type": "address"
            },
            {
              "name": "loa",
              "type": "uint8"
            },
            {
              "name": "validFrom",
              "type": "uint256"
            },
            {
              "name": "validTo",
              "type": "uint256"
            }
          ],
          "name": "claim",
          "type": "tuple"
        },
        {
          "name": "v",
          "type": "uint8"
        },
        {
          "name": "r",
          "type": "bytes32"
        },
        {
          "name": "s",
          "type": "bytes32"
        }
      ],
      "name": "verify",
      "outputs": [
        {
          "name": "",
          "type": "bool"
        }
      ],
      "payable": false,
      "stateMutability": "view",
      "type": "function"
    }
  ],
  "bytecode": "0x60806040523480156200001157600080fd5b5060405160208062000db88339810180604052620000339190810190620001cd565b6040805190810160405280601481526020017f4549503731324964656e74697479436c61696d730000000000000000000000008152506040805190810160405280600181526020017f310000000000000000000000000000000000000000000000000000000000000081525060013084620000f46080604051908101604052808781526020018681526020018581526020018473ffffffffffffffffffffffffffffffffffffffff1681525062000146640100000000026401000000009004565b600181905550806000806101000a81548173ffffffffffffffffffffffffffffffffffffffff021916908373ffffffffffffffffffffffffffffffffffffffff160217905550505050505050620002e5565b6000604051808062000d666052913960520190506040518091039020826000015180519060200120836020015180519060200120846040015185606001516040516020016200019a9594939291906200022c565b604051602081830303815290604052805190602001209050919050565b6000620001c58251620002d1565b905092915050565b600060208284031215620001e057600080fd5b6000620001f084828501620001b7565b91505092915050565b620002048162000289565b82525050565b62000215816200029d565b82525050565b6200022681620002c7565b82525050565b600060a0820190506200024360008301886200020a565b6200025260208301876200020a565b6200026160408301866200020a565b6200027060608301856200021b565b6200027f6080830184620001f9565b9695505050505050565b60006200029682620002a7565b9050919050565b6000819050919050565b600073ffffffffffffffffffffffffffffffffffffffff82169050919050565b6000819050919050565b6000620002de82620002a7565b9050919050565b610a7180620002f56000396000f3fe608060405234801561001057600080fd5b5060043610610053576000357c0100000000000000000000000000000000000000000000000000000000900480632afe42ee1461005857806398e01bcd14610088575b600080fd5b610072600480360361006d919081019061063f565b6100b8565b60405161007f9190610759565b60405180910390f35b6100a2600480360361009d91908101906105db565b610154565b6040516100af9190610759565b60405180910390f35b6000806001546100c7876101f0565b60405160200180807f19010000000000000000000000000000000000000000000000000000000000008152506002018381526020018281526020019250505060405160208183030381529060405280519060200120905061012f81876000015187878761025c565b8015610149575061014886608001518760a00151610397565b5b915050949350505050565b600080600154610163876103b0565b60405160200180807f1901000000000000000000000000000000000000000000000000000000000000815250600201838152602001828152602001925050506040516020818303038152906040528051906020012090506101cb81876000015187878761025c565b80156101e557506101e486606001518760800151610397565b5b915050949350505050565b600060405180806109c86070913960700190506040518091039020826000015183602001518460400151856060015186608001518760a0015160405160200161023f9796959493929190610774565b604051602081830303815290604052805190602001209050919050565b60008060009054906101000a900473ffffffffffffffffffffffffffffffffffffffff1673ffffffffffffffffffffffffffffffffffffffff1663622b2a3c8660018988888860405160008152602001604052604051808581526020018460ff1660ff1681526020018381526020018281526020019450505050506020604051602081039080840390855afa1580156102f9573d6000803e3d6000fd5b505050602060405103516040518363ffffffff167c010000000000000000000000000000000000000000000000000000000002815260040161033c929190610724565b60206040518083038186803b15801561035457600080fd5b505afa158015610368573d6000803e3d6000fd5b505050506040513d601f19601f8201168201806040525061038c91908101906105b2565b905095945050505050565b60004283101580156103a857508142105b905092915050565b600060405180806109686060913960600190506040518091039020826000015183602001518460400151856060015186608001516040516020016103f9969594939291906107e3565b604051602081830303815290604052805190602001209050919050565b600061042282356108fc565b905092915050565b6000610436825161090e565b905092915050565b600061044a823561091a565b905092915050565b600061045e8235610946565b905092915050565b600060a0828403121561047857600080fd5b61048260a0610844565b9050600061049284828501610416565b60008301525060206104a684828501610416565b60208301525060406104ba8482850161059e565b60408301525060606104ce8482850161058a565b60608301525060806104e28482850161058a565b60808301525092915050565b600060c0828403121561050057600080fd5b61050a60c0610844565b9050600061051a84828501610416565b600083015250602061052e84828501610416565b60208301525060406105428482850161043e565b60408301525060606105568482850161059e565b606083015250608061056a8482850161058a565b60808301525060a061057e8482850161058a565b60a08301525092915050565b60006105968235610950565b905092915050565b60006105aa823561095a565b905092915050565b6000602082840312156105c457600080fd5b60006105d28482850161042a565b91505092915050565b60008060008061010085870312156105f257600080fd5b600061060087828801610466565b94505060a06106118782880161059e565b93505060c061062287828801610452565b92505060e061063387828801610452565b91505092959194509250565b600080600080610120858703121561065657600080fd5b6000610664878288016104ee565b94505060c06106758782880161059e565b93505060e061068687828801610452565b92505061010061069887828801610452565b91505092959194509250565b6106ad81610871565b82525050565b6106bc81610883565b82525050565b6106cb8161088f565b82525050565b6106da816108bb565b82525050565b7f766572694b657900000000000000000000000000000000000000000000000000815250565b61070f816108e5565b82525050565b61071e816108ef565b82525050565b600060608201905061073960008301856106a4565b610745602083016106e0565b61075260408301846106a4565b9392505050565b600060208201905061076e60008301846106b3565b92915050565b600060e082019050610789600083018a6106d1565b61079660208301896106a4565b6107a360408301886106a4565b6107b060608301876106c2565b6107bd6080830186610715565b6107ca60a0830185610706565b6107d760c0830184610706565b98975050505050505050565b600060c0820190506107f860008301896106d1565b61080560208301886106a4565b61081260408301876106a4565b61081f6060830186610715565b61082c6080830185610706565b61083960a0830184610706565b979650505050505050565b6000604051905081810181811067ffffffffffffffff8211171561086757600080fd5b8060405250919050565b600061087c826108c5565b9050919050565b60008115159050919050565b60007fffff00000000000000000000000000000000000000000000000000000000000082169050919050565b6000819050919050565b600073ffffffffffffffffffffffffffffffffffffffff82169050919050565b6000819050919050565b600060ff82169050919050565b6000610907826108c5565b9050919050565b60008115159050919050565b60007fffff00000000000000000000000000000000000000000000000000000000000082169050919050565b6000819050919050565b6000819050919050565b600060ff8216905091905056fe56657269666965644964656e746974792861646472657373206973737565722c2061646472657373207375626a6563742c2075696e7438206c6f612c2075696e743235362076616c696446726f6d2c2075696e743235362076616c6964546f2956657269666965645265736964656e742861646472657373206973737565722c2061646472657373207375626a6563742c2062797465733220636f756e7472792c2075696e7438206c6f612c2075696e743235362076616c696446726f6d2c2075696e743235362076616c6964546f29a265627a7a72305820ad93295a607e0e52e19dfb1da6e97cda3cad7371a683d4bc5dd85d4cf8b9fa0e6c6578706572696d656e74616cf50037454950373132446f6d61696e28737472696e67206e616d652c737472696e672076657273696f6e2c75696e7432353620636861696e49642c6164647265737320766572696679696e67436f6e747261637429",
  "source": "pragma solidity >=0.5.3 <0.6.0;\npragma experimental ABIEncoderV2;\nimport \"./AbstractClaimsVerifier.sol\";\nimport \"./claimTypes/IdentityClaimTypes.sol\";\n\ncontract IdentityClaimsVerifier is AbstractClaimsVerifier, IdentityClaimTypes {\n\n  constructor (address _registryAddress) AbstractClaimsVerifier(\"EIP712IdentityClaims\", \"1\", 1, address(this), _registryAddress) public {}\n\n  function hash(VerifiedIdentity memory claim) internal pure returns (bytes32) {\n    return keccak256(\n      abi.encode(\n        VERIFIED_IDENTITY_TYPEHASH,\n        claim.issuer,\n        claim.subject,\n        claim.loa,\n        claim.validFrom,\n        claim.validTo\n      )\n    );\n  }\n\n  function hash(VerifiedResident memory claim) internal pure returns (bytes32) {\n    return keccak256(\n      abi.encode(\n        VERIFIED_RESIDENT_TYPEHASH,\n        claim.issuer,\n        claim.subject,\n        claim.country,\n        claim.loa,\n        claim.validFrom,\n        claim.validTo\n      )\n    );\n  }\n\n  function verify(VerifiedIdentity memory claim, uint8 v, bytes32 r, bytes32 s) public view returns (bool) {\n    bytes32 digest = keccak256(\n      abi.encodePacked(\n        \"\\x19\\x01\",\n        DOMAIN_SEPARATOR,\n        hash(claim)\n      )\n    );\n    return verifyIssuer(digest, claim.issuer, v, r, s) && valid(claim.validFrom, claim.validTo);\n  }\n\n\n  function verify(VerifiedResident memory claim, uint8 v, bytes32 r, bytes32 s) public view returns (bool) {\n    bytes32 digest = keccak256(\n      abi.encodePacked(\n        \"\\x19\\x01\",\n        DOMAIN_SEPARATOR,\n        hash(claim)\n      )\n    );\n    return verifyIssuer(digest, claim.issuer, v, r, s) && valid(claim.validFrom, claim.validTo);\n  }\n\n}",
  "sourcePath": "/Users/pelleb/code/consensys/eip712VerifiableClaims/contracts/IdentityClaimsVerifier.sol",
  "compiler": {
    "name": "solc",
    "version": "0.5.3+commit.10d17f24.Emscripten.clang"
  },
  "schemaVersion": "3.0.2",
  "updatedAt": "2019-03-02T00:30:33.539Z",
  "devdoc": {
    "methods": {}
  },
  "userdoc": {
    "methods": {}
  }
}