{
  "contractName": "KYCCoin",
  "abi": [
    {
      "inputs": [
        {
          "name": "_idVerifier",
          "type": "address"
        },
        {
          "name": "_ownershipVerifier",
          "type": "address"
        }
      ],
      "payable": false,
      "stateMutability": "nonpayable",
      "type": "constructor"
    },
    {
      "anonymous": false,
      "inputs": [
        {
          "indexed": true,
          "name": "_from",
          "type": "address"
        },
        {
          "indexed": true,
          "name": "_to",
          "type": "address"
        },
        {
          "indexed": false,
          "name": "_value",
          "type": "uint256"
        }
      ],
      "name": "Transfer",
      "type": "event"
    },
    {
      "constant": false,
      "inputs": [
        {
          "name": "verifier",
          "type": "address"
        }
      ],
      "name": "authorizeVerifier",
      "outputs": [],
      "payable": false,
      "stateMutability": "nonpayable",
      "type": "function"
    },
    {
      "constant": false,
      "inputs": [
        {
          "name": "verifier",
          "type": "address"
        }
      ],
      "name": "deauthorizeVerifier",
      "outputs": [],
      "payable": false,
      "stateMutability": "nonpayable",
      "type": "function"
    },
    {
      "constant": false,
      "inputs": [
        {
          "components": [
            {
              "name": "subject",
              "type": "address"
            },
            {
              "name": "validFrom",
              "type": "uint256"
            },
            {
              "name": "validTo",
              "type": "uint256"
            }
          ],
          "name": "claim",
          "type": "tuple"
        },
        {
          "name": "v",
          "type": "uint8"
        },
        {
          "name": "r",
          "type": "bytes32"
        },
        {
          "name": "s",
          "type": "bytes32"
        }
      ],
      "name": "authorize",
      "outputs": [
        {
          "name": "",
          "type": "bool"
        }
      ],
      "payable": false,
      "stateMutability": "nonpayable",
      "type": "function"
    },
    {
      "constant": false,
      "inputs": [
        {
          "components": [
            {
              "name": "issuer",
              "type": "address"
            },
            {
              "name": "subject",
              "type": "address"
            },
            {
              "name": "loa",
              "type": "uint8"
            },
            {
              "name": "validFrom",
              "type": "uint256"
            },
            {
              "name": "validTo",
              "type": "uint256"
            }
          ],
          "name": "claim",
          "type": "tuple"
        },
        {
          "name": "v",
          "type": "uint8"
        },
        {
          "name": "r",
          "type": "bytes32"
        },
        {
          "name": "s",
          "type": "bytes32"
        }
      ],
      "name": "authorize",
      "outputs": [
        {
          "name": "",
          "type": "bool"
        }
      ],
      "payable": false,
      "stateMutability": "nonpayable",
      "type": "function"
    },
    {
      "constant": false,
      "inputs": [
        {
          "name": "receiver",
          "type": "address"
        },
        {
          "name": "amount",
          "type": "uint256"
        }
      ],
      "name": "sendCoin",
      "outputs": [
        {
          "name": "sufficient",
          "type": "bool"
        }
      ],
      "payable": false,
      "stateMutability": "nonpayable",
      "type": "function"
    },
    {
      "constant": true,
      "inputs": [
        {
          "name": "addr",
          "type": "address"
        }
      ],
      "name": "getBalance",
      "outputs": [
        {
          "name": "",
          "type": "uint256"
        }
      ],
      "payable": false,
      "stateMutability": "view",
      "type": "function"
    }
  ],
  "bytecode": "0x60806040523480156200001157600080fd5b50604051604080620014a283398101806040526200003391908101906200019d565b336000806101000a81548173ffffffffffffffffffffffffffffffffffffffff021916908373ffffffffffffffffffffffffffffffffffffffff16021790555081600160006101000a81548173ffffffffffffffffffffffffffffffffffffffff021916908373ffffffffffffffffffffffffffffffffffffffff16021790555080600260006101000a81548173ffffffffffffffffffffffffffffffffffffffff021916908373ffffffffffffffffffffffffffffffffffffffff160217905550612710600360003373ffffffffffffffffffffffffffffffffffffffff1673ffffffffffffffffffffffffffffffffffffffff1681526020019081526020016000208190555042600560003373ffffffffffffffffffffffffffffffffffffffff1673ffffffffffffffffffffffffffffffffffffffff16815260200190815260200160002081905550505062000212565b6000620001958251620001fe565b905092915050565b60008060408385031215620001b157600080fd5b6000620001c18582860162000187565b9250506020620001d48582860162000187565b9150509250929050565b600073ffffffffffffffffffffffffffffffffffffffff82169050919050565b60006200020b82620001de565b9050919050565b61128080620002226000396000f3fe608060405234801561001057600080fd5b506004361061007f576000357c01000000000000000000000000000000000000000000000000000000009004806320ad8cab14610084578063267a6ea7146100a0578063472c239b146100bc57806390b98a11146100ec578063d829b1cf1461011c578063f8b2cb4f1461014c575b600080fd5b61009e60048036036100999190810190610b87565b61017c565b005b6100ba60048036036100b59190810190610b87565b610254565b005b6100d660048036036100d19190810190610c3e565b61032d565b6040516100e39190610ffa565b60405180910390f35b61010660048036036101019190810190610bd9565b610542565b6040516101139190610ffa565b60405180910390f35b61013660048036036101319190810190610ca1565b6107a5565b6040516101439190610ffa565b60405180910390f35b61016660048036036101619190810190610b87565b6109de565b6040516101739190611160565b60405180910390f35b6000809054906101000a900473ffffffffffffffffffffffffffffffffffffffff1673ffffffffffffffffffffffffffffffffffffffff163373ffffffffffffffffffffffffffffffffffffffff1614151561020d576040517f08c379a000000000000000000000000000000000000000000000000000000000815260040161020490611015565b60405180910390fd5b42600460008373ffffffffffffffffffffffffffffffffffffffff1673ffffffffffffffffffffffffffffffffffffffff1681526020019081526020016000208190555050565b6000809054906101000a900473ffffffffffffffffffffffffffffffffffffffff1673ffffffffffffffffffffffffffffffffffffffff163373ffffffffffffffffffffffffffffffffffffffff161415156102e5576040517f08c379a00000000000000000000000000000000000000000000000000000000081526004016102dc90611015565b60405180910390fd5b6000600460008373ffffffffffffffffffffffffffffffffffffffff1673ffffffffffffffffffffffffffffffffffffffff1681526020019081526020016000208190555050565b600080600560003373ffffffffffffffffffffffffffffffffffffffff1673ffffffffffffffffffffffffffffffffffffffff168152602001908152602001600020541115156103b2576040517f08c379a00000000000000000000000000000000000000000000000000000000081526004016103a9906110b5565b60405180910390fd5b3373ffffffffffffffffffffffffffffffffffffffff16856000015173ffffffffffffffffffffffffffffffffffffffff16141515610426576040517f08c379a000000000000000000000000000000000000000000000000000000000815260040161041d90611035565b60405180910390fd5b4260056000600260009054906101000a900473ffffffffffffffffffffffffffffffffffffffff1673ffffffffffffffffffffffffffffffffffffffff16637a7e872e898989896040518563ffffffff167c01000000000000000000000000000000000000000000000000000000000281526004016104a894939291906110d5565b60206040518083038186803b1580156104c057600080fd5b505afa1580156104d4573d6000803e3d6000fd5b505050506040513d601f19601f820116820180604052506104f89190810190610bb0565b73ffffffffffffffffffffffffffffffffffffffff1673ffffffffffffffffffffffffffffffffffffffff1681526020019081526020016000208190555060019050949350505050565b600080600560003373ffffffffffffffffffffffffffffffffffffffff1673ffffffffffffffffffffffffffffffffffffffff168152602001908152602001600020541115156105c7576040517f08c379a00000000000000000000000000000000000000000000000000000000081526004016105be906110b5565b60405180910390fd5b6000600560008573ffffffffffffffffffffffffffffffffffffffff1673ffffffffffffffffffffffffffffffffffffffff1681526020019081526020016000205411151561064b576040517f08c379a000000000000000000000000000000000000000000000000000000000815260040161064290611055565b60405180910390fd5b81600360003373ffffffffffffffffffffffffffffffffffffffff1673ffffffffffffffffffffffffffffffffffffffff16815260200190815260200160002054101561069b576000905061079f565b81600360003373ffffffffffffffffffffffffffffffffffffffff1673ffffffffffffffffffffffffffffffffffffffff1681526020019081526020016000206000828254039250508190555081600360008573ffffffffffffffffffffffffffffffffffffffff1673ffffffffffffffffffffffffffffffffffffffff168152602001908152602001600020600082825401925050819055508273ffffffffffffffffffffffffffffffffffffffff163373ffffffffffffffffffffffffffffffffffffffff167fddf252ad1be2c89b69c2b068fc378daa952ba7f163c4a11628f55a4df523b3ef846040516107929190611160565b60405180910390a3600190505b92915050565b6000600160009054906101000a900473ffffffffffffffffffffffffffffffffffffffff1673ffffffffffffffffffffffffffffffffffffffff166398e01bcd868686866040518563ffffffff167c0100000000000000000000000000000000000000000000000000000000028152600401610824949392919061111a565b60206040518083038186803b15801561083c57600080fd5b505afa158015610850573d6000803e3d6000fd5b505050506040513d601f19601f820116820180604052506108749190810190610c15565b15156108b5576040517f08c379a00000000000000000000000000000000000000000000000000000000081526004016108ac90611075565b60405180910390fd5b600060046000876000015173ffffffffffffffffffffffffffffffffffffffff1673ffffffffffffffffffffffffffffffffffffffff1681526020019081526020016000205411151561093d576040517f08c379a000000000000000000000000000000000000000000000000000000000815260040161093490611095565b60405180910390fd5b6002856040015160ff161015151561098a576040517f08c379a000000000000000000000000000000000000000000000000000000000815260040161098190611035565b60405180910390fd5b4260056000876020015173ffffffffffffffffffffffffffffffffffffffff1673ffffffffffffffffffffffffffffffffffffffff1681526020019081526020016000208190555060019050949350505050565b6000600360008373ffffffffffffffffffffffffffffffffffffffff1673ffffffffffffffffffffffffffffffffffffffff168152602001908152602001600020549050919050565b6000610a338235611207565b905092915050565b6000610a478251611207565b905092915050565b6000610a5b8251611219565b905092915050565b6000610a6f8235611225565b905092915050565b600060608284031215610a8957600080fd5b610a93606061117b565b90506000610aa384828501610a27565b6000830152506020610ab784828501610b5f565b6020830152506040610acb84828501610b5f565b60408301525092915050565b600060a08284031215610ae957600080fd5b610af360a061117b565b90506000610b0384828501610a27565b6000830152506020610b1784828501610a27565b6020830152506040610b2b84828501610b73565b6040830152506060610b3f84828501610b5f565b6060830152506080610b5384828501610b5f565b60808301525092915050565b6000610b6b823561122f565b905092915050565b6000610b7f8235611239565b905092915050565b600060208284031215610b9957600080fd5b6000610ba784828501610a27565b91505092915050565b600060208284031215610bc257600080fd5b6000610bd084828501610a3b565b91505092915050565b60008060408385031215610bec57600080fd5b6000610bfa85828601610a27565b9250506020610c0b85828601610b5f565b9150509250929050565b600060208284031215610c2757600080fd5b6000610c3584828501610a4f565b91505092915050565b60008060008060c08587031215610c5457600080fd5b6000610c6287828801610a77565b9450506060610c7387828801610b73565b9350506080610c8487828801610a63565b92505060a0610c9587828801610a63565b91505092959194509250565b6000806000806101008587031215610cb857600080fd5b6000610cc687828801610ad7565b94505060a0610cd787828801610b73565b93505060c0610ce887828801610a63565b92505060e0610cf987828801610a63565b91505092959194509250565b610d0e816111a8565b82525050565b610d1d816111ba565b82525050565b610d2c816111c6565b82525050565b6000602282527f4f6e6c79206f776e65722063616e2063616c6c20746869732066756e6374696f60208301527f6e2e0000000000000000000000000000000000000000000000000000000000006040830152606082019050919050565b6000602f82527f4c6576656c206f66204173737572616e6365206973207265717569726564207460208301527f6f2062652032206f722061626f766500000000000000000000000000000000006040830152606082019050919050565b6000602982527f4f6e6c792077686974656c69737465642075736572732063616e20726563656960208301527f766520746f6b656e7300000000000000000000000000000000000000000000006040830152606082019050919050565b6000601f82527f436f756c64206e6f7420566572696679204964656e7469747920436c61696d006020830152604082019050919050565b6000601e82527f497373756572206f6620636c61696d206973206e6f74205472757374656400006020830152604082019050919050565b6000602e82527f4f6e6c792077686974656c69737465642075736572732063616e2063616c6c2060208301527f746869732066756e6374696f6e2e0000000000000000000000000000000000006040830152606082019050919050565b606082016000820151610f2a6000850182610d05565b506020820151610f3d6020850182610fbe565b506040820151610f506040850182610fbe565b50505050565b60a082016000820151610f6c6000850182610d05565b506020820151610f7f6020850182610d05565b506040820151610f926040850182610fdc565b506060820151610fa56060850182610fbe565b506080820151610fb86080850182610fbe565b50505050565b610fc7816111f0565b82525050565b610fd6816111f0565b82525050565b610fe5816111fa565b82525050565b610ff4816111fa565b82525050565b600060208201905061100f6000830184610d14565b92915050565b6000602082019050818103600083015261102e81610d32565b9050919050565b6000602082019050818103600083015261104e81610d8f565b9050919050565b6000602082019050818103600083015261106e81610dec565b9050919050565b6000602082019050818103600083015261108e81610e49565b9050919050565b600060208201905081810360008301526110ae81610e80565b9050919050565b600060208201905081810360008301526110ce81610eb7565b9050919050565b600060c0820190506110ea6000830187610f14565b6110f76060830186610feb565b6111046080830185610d23565b61111160a0830184610d23565b95945050505050565b6000610100820190506111306000830187610f56565b61113d60a0830186610feb565b61114a60c0830185610d23565b61115760e0830184610d23565b95945050505050565b60006020820190506111756000830184610fcd565b92915050565b6000604051905081810181811067ffffffffffffffff8211171561119e57600080fd5b8060405250919050565b60006111b3826111d0565b9050919050565b60008115159050919050565b6000819050919050565b600073ffffffffffffffffffffffffffffffffffffffff82169050919050565b6000819050919050565b600060ff82169050919050565b6000611212826111d0565b9050919050565b60008115159050919050565b6000819050919050565b6000819050919050565b600060ff8216905091905056fea265627a7a7230582034186873b2b2e273041b5d02672c11cacaa02d3d084ead8b1827219455fb6b206c6578706572696d656e74616cf50037",
  "source": "pragma solidity >=0.5.3 <0.6.0;\npragma experimental ABIEncoderV2;\nimport \"./claimTypes/IdentityClaimTypes.sol\";\nimport \"./claimTypes/OwnershipProofTypes.sol\";\nimport \"./IdentityClaimsVerifier.sol\";\nimport \"./OwnershipProofVerifier.sol\";\n\ncontract KYCCoin is IdentityClaimTypes, OwnershipProofTypes {\n  address owner;\n  IdentityClaimsVerifier idVerifier;\n  OwnershipProofVerifier ownershipVerifier;\n  mapping (address => uint) balances;\n  mapping (address => uint) verifiers;\n  mapping (address => uint) whitelist;\n\n  event Transfer(address indexed _from, address indexed _to, uint256 _value);\n\n  modifier onlyOwner {\n    require(\n      msg.sender == owner, \"Only owner can call this function.\"\n    );\n    _;\n  }\n\n  modifier onlyWhitelisted {\n    require(\n      whitelist[msg.sender] > 0, \"Only whitelisted users can call this function.\"\n    );\n    _;\n  }\n\n  constructor(address _idVerifier, address _ownershipVerifier) public {\n    owner = msg.sender;\n    idVerifier = IdentityClaimsVerifier(_idVerifier);\n    ownershipVerifier = OwnershipProofVerifier(_ownershipVerifier);\n    balances[msg.sender] = 10000;\n    whitelist[msg.sender] = block.timestamp;\n  }\n\n  function authorizeVerifier(address verifier) external onlyOwner {\n    verifiers[verifier] = block.timestamp;\n  }\n\n  function deauthorizeVerifier(address verifier) external onlyOwner {\n    verifiers[verifier] = 0;\n  }\n\n  function authorize(VerifiedIdentity memory claim, uint8 v, bytes32 r, bytes32 s) public returns (bool) {\n    require(idVerifier.verify(claim, v, r, s), \"Could not Verify Identity Claim\");\n    require(verifiers[claim.issuer] > 0, \"Issuer of claim is not Trusted\");\n    require(claim.loa >= 2, \"Level of Assurance is required to be 2 or above\");\n    whitelist[claim.subject] = block.timestamp;\n    return true;\n  }\n\n  function authorize(OwnershipProof memory claim, uint8 v, bytes32 r, bytes32 s) public onlyWhitelisted returns (bool) {\n    require(claim.subject == msg.sender, \"Level of Assurance is required to be 2 or above\");\n    whitelist[ownershipVerifier.ownedAddress(claim, v, r, s)] = block.timestamp;\n    return true;\n  }\n\n  function sendCoin(address receiver, uint amount) public onlyWhitelisted returns(bool sufficient) {\n    require(\n      whitelist[receiver] > 0, \"Only whitelisted users can receive tokens\"\n    );\n    if (balances[msg.sender] < amount) return false;\n    balances[msg.sender] -= amount;\n    balances[receiver] += amount;\n    emit Transfer(msg.sender, receiver, amount);\n    return true;\n  }\n\n  function getBalance(address addr) public view returns(uint) {\n    return balances[addr];\n  }\n}\n",
  "sourcePath": "/Users/pelleb/code/consensys/eip712VerifiableClaims/contracts/KYCCoin.sol",
  "compiler": {
    "name": "solc",
    "version": "0.5.3+commit.10d17f24.Emscripten.clang"
  },
  "schemaVersion": "3.0.2",
  "updatedAt": "2019-03-02T16:08:25.073Z",
  "devdoc": {
    "methods": {}
  },
  "userdoc": {
    "methods": {}
  }
}