{
  "contractName": "MetaCoin",
  "abi": [
    {
      "inputs": [
        {
          "name": "_verifier",
          "type": "address"
        }
      ],
      "payable": false,
      "stateMutability": "nonpayable",
      "type": "constructor"
    },
    {
      "anonymous": false,
      "inputs": [
        {
          "indexed": true,
          "name": "_from",
          "type": "address"
        },
        {
          "indexed": true,
          "name": "_to",
          "type": "address"
        },
        {
          "indexed": false,
          "name": "_value",
          "type": "uint256"
        }
      ],
      "name": "Transfer",
      "type": "event"
    },
    {
      "constant": false,
      "inputs": [
        {
          "name": "verifier",
          "type": "address"
        }
      ],
      "name": "authorizeVerifier",
      "outputs": [],
      "payable": false,
      "stateMutability": "nonpayable",
      "type": "function"
    },
    {
      "constant": false,
      "inputs": [
        {
          "name": "verifier",
          "type": "address"
        }
      ],
      "name": "deauthorizeVerifier",
      "outputs": [],
      "payable": false,
      "stateMutability": "nonpayable",
      "type": "function"
    },
    {
      "constant": false,
      "inputs": [
        {
          "components": [
            {
              "name": "issuer",
              "type": "address"
            },
            {
              "name": "subject",
              "type": "address"
            },
            {
              "name": "loa",
              "type": "uint8"
            },
            {
              "name": "validFrom",
              "type": "uint256"
            },
            {
              "name": "validTo",
              "type": "uint256"
            }
          ],
          "name": "claim",
          "type": "tuple"
        },
        {
          "name": "v",
          "type": "uint8"
        },
        {
          "name": "r",
          "type": "bytes32"
        },
        {
          "name": "s",
          "type": "bytes32"
        }
      ],
      "name": "authorize",
      "outputs": [
        {
          "name": "",
          "type": "bool"
        }
      ],
      "payable": false,
      "stateMutability": "nonpayable",
      "type": "function"
    },
    {
      "constant": false,
      "inputs": [
        {
          "name": "receiver",
          "type": "address"
        },
        {
          "name": "amount",
          "type": "uint256"
        }
      ],
      "name": "sendCoin",
      "outputs": [
        {
          "name": "sufficient",
          "type": "bool"
        }
      ],
      "payable": false,
      "stateMutability": "nonpayable",
      "type": "function"
    },
    {
      "constant": true,
      "inputs": [
        {
          "name": "addr",
          "type": "address"
        }
      ],
      "name": "getBalance",
      "outputs": [
        {
          "name": "",
          "type": "uint256"
        }
      ],
      "payable": false,
      "stateMutability": "view",
      "type": "function"
    }
  ],
  "bytecode": "0x608060405234801561001057600080fd5b50604051602080611067833981018060405261002f9190810190610154565b336000806101000a81548173ffffffffffffffffffffffffffffffffffffffff021916908373ffffffffffffffffffffffffffffffffffffffff16021790555080600160006101000a81548173ffffffffffffffffffffffffffffffffffffffff021916908373ffffffffffffffffffffffffffffffffffffffff160217905550612710600260003373ffffffffffffffffffffffffffffffffffffffff1673ffffffffffffffffffffffffffffffffffffffff1681526020019081526020016000208190555042600460003373ffffffffffffffffffffffffffffffffffffffff1673ffffffffffffffffffffffffffffffffffffffff16815260200190815260200160002081905550506101af565b600061014c825161019d565b905092915050565b60006020828403121561016657600080fd5b600061017484828501610140565b91505092915050565b600073ffffffffffffffffffffffffffffffffffffffff82169050919050565b60006101a88261017d565b9050919050565b610ea9806101be6000396000f3fe608060405234801561001057600080fd5b5060043610610074576000357c01000000000000000000000000000000000000000000000000000000009004806320ad8cab14610079578063267a6ea71461009557806390b98a11146100b1578063d829b1cf146100e1578063f8b2cb4f14610111575b600080fd5b610093600480360361008e91908101906108c3565b610141565b005b6100af60048036036100aa91908101906108c3565b610219565b005b6100cb60048036036100c691908101906108ec565b6102f2565b6040516100d89190610c68565b60405180910390f35b6100fb60048036036100f69190810190610951565b610555565b6040516101089190610c68565b60405180910390f35b61012b600480360361012691908101906108c3565b61078e565b6040516101389190610d89565b60405180910390f35b6000809054906101000a900473ffffffffffffffffffffffffffffffffffffffff1673ffffffffffffffffffffffffffffffffffffffff163373ffffffffffffffffffffffffffffffffffffffff161415156101d2576040517f08c379a00000000000000000000000000000000000000000000000000000000081526004016101c990610c83565b60405180910390fd5b42600360008373ffffffffffffffffffffffffffffffffffffffff1673ffffffffffffffffffffffffffffffffffffffff1681526020019081526020016000208190555050565b6000809054906101000a900473ffffffffffffffffffffffffffffffffffffffff1673ffffffffffffffffffffffffffffffffffffffff163373ffffffffffffffffffffffffffffffffffffffff161415156102aa576040517f08c379a00000000000000000000000000000000000000000000000000000000081526004016102a190610c83565b60405180910390fd5b6000600360008373ffffffffffffffffffffffffffffffffffffffff1673ffffffffffffffffffffffffffffffffffffffff1681526020019081526020016000208190555050565b600080600460003373ffffffffffffffffffffffffffffffffffffffff1673ffffffffffffffffffffffffffffffffffffffff16815260200190815260200160002054111515610377576040517f08c379a000000000000000000000000000000000000000000000000000000000815260040161036e90610d23565b60405180910390fd5b6000600460008573ffffffffffffffffffffffffffffffffffffffff1673ffffffffffffffffffffffffffffffffffffffff168152602001908152602001600020541115156103fb576040517f08c379a00000000000000000000000000000000000000000000000000000000081526004016103f290610cc3565b60405180910390fd5b81600260003373ffffffffffffffffffffffffffffffffffffffff1673ffffffffffffffffffffffffffffffffffffffff16815260200190815260200160002054101561044b576000905061054f565b81600260003373ffffffffffffffffffffffffffffffffffffffff1673ffffffffffffffffffffffffffffffffffffffff1681526020019081526020016000206000828254039250508190555081600260008573ffffffffffffffffffffffffffffffffffffffff1673ffffffffffffffffffffffffffffffffffffffff168152602001908152602001600020600082825401925050819055508273ffffffffffffffffffffffffffffffffffffffff163373ffffffffffffffffffffffffffffffffffffffff167fddf252ad1be2c89b69c2b068fc378daa952ba7f163c4a11628f55a4df523b3ef846040516105429190610d89565b60405180910390a3600190505b92915050565b6000600160009054906101000a900473ffffffffffffffffffffffffffffffffffffffff1673ffffffffffffffffffffffffffffffffffffffff166398e01bcd868686866040518563ffffffff167c01000000000000000000000000000000000000000000000000000000000281526004016105d49493929190610d43565b60206040518083038186803b1580156105ec57600080fd5b505afa158015610600573d6000803e3d6000fd5b505050506040513d601f19601f820116820180604052506106249190810190610928565b1515610665576040517f08c379a000000000000000000000000000000000000000000000000000000000815260040161065c90610ce3565b60405180910390fd5b600060036000876000015173ffffffffffffffffffffffffffffffffffffffff1673ffffffffffffffffffffffffffffffffffffffff168152602001908152602001600020541115156106ed576040517f08c379a00000000000000000000000000000000000000000000000000000000081526004016106e490610d03565b60405180910390fd5b6002856040015160ff161015151561073a576040517f08c379a000000000000000000000000000000000000000000000000000000000815260040161073190610ca3565b60405180910390fd5b4260046000876020015173ffffffffffffffffffffffffffffffffffffffff1673ffffffffffffffffffffffffffffffffffffffff1681526020019081526020016000208190555060019050949350505050565b6000600260008373ffffffffffffffffffffffffffffffffffffffff1673ffffffffffffffffffffffffffffffffffffffff168152602001908152602001600020549050919050565b60006107e38235610e30565b905092915050565b60006107f78251610e42565b905092915050565b600061080b8235610e4e565b905092915050565b600060a0828403121561082557600080fd5b61082f60a0610da4565b9050600061083f848285016107d7565b6000830152506020610853848285016107d7565b6020830152506040610867848285016108af565b604083015250606061087b8482850161089b565b606083015250608061088f8482850161089b565b60808301525092915050565b60006108a78235610e58565b905092915050565b60006108bb8235610e62565b905092915050565b6000602082840312156108d557600080fd5b60006108e3848285016107d7565b91505092915050565b600080604083850312156108ff57600080fd5b600061090d858286016107d7565b925050602061091e8582860161089b565b9150509250929050565b60006020828403121561093a57600080fd5b6000610948848285016107eb565b91505092915050565b600080600080610100858703121561096857600080fd5b600061097687828801610813565b94505060a0610987878288016108af565b93505060c0610998878288016107ff565b92505060e06109a9878288016107ff565b91505092959194509250565b6109be81610dd1565b82525050565b6109cd81610de3565b82525050565b6109dc81610def565b82525050565b6000602282527f4f6e6c79206f776e65722063616e2063616c6c20746869732066756e6374696f60208301527f6e2e0000000000000000000000000000000000000000000000000000000000006040830152606082019050919050565b6000602f82527f4c6576656c206f66204173737572616e6365206973207265717569726564207460208301527f6f2062652032206f722061626f766500000000000000000000000000000000006040830152606082019050919050565b6000602982527f4f6e6c792077686974656c69737465642075736572732063616e20726563656960208301527f766520746f6b656e7300000000000000000000000000000000000000000000006040830152606082019050919050565b6000601f82527f436f756c64206e6f7420566572696679204964656e7469747920436c61696d006020830152604082019050919050565b6000601e82527f497373756572206f6620636c61696d206973206e6f74205472757374656400006020830152604082019050919050565b6000602e82527f4f6e6c792077686974656c69737465642075736572732063616e2063616c6c2060208301527f746869732066756e6374696f6e2e0000000000000000000000000000000000006040830152606082019050919050565b60a082016000820151610bda60008501826109b5565b506020820151610bed60208501826109b5565b506040820151610c006040850182610c4a565b506060820151610c136060850182610c2c565b506080820151610c266080850182610c2c565b50505050565b610c3581610e19565b82525050565b610c4481610e19565b82525050565b610c5381610e23565b82525050565b610c6281610e23565b82525050565b6000602082019050610c7d60008301846109c4565b92915050565b60006020820190508181036000830152610c9c816109e2565b9050919050565b60006020820190508181036000830152610cbc81610a3f565b9050919050565b60006020820190508181036000830152610cdc81610a9c565b9050919050565b60006020820190508181036000830152610cfc81610af9565b9050919050565b60006020820190508181036000830152610d1c81610b30565b9050919050565b60006020820190508181036000830152610d3c81610b67565b9050919050565b600061010082019050610d596000830187610bc4565b610d6660a0830186610c59565b610d7360c08301856109d3565b610d8060e08301846109d3565b95945050505050565b6000602082019050610d9e6000830184610c3b565b92915050565b6000604051905081810181811067ffffffffffffffff82111715610dc757600080fd5b8060405250919050565b6000610ddc82610df9565b9050919050565b60008115159050919050565b6000819050919050565b600073ffffffffffffffffffffffffffffffffffffffff82169050919050565b6000819050919050565b600060ff82169050919050565b6000610e3b82610df9565b9050919050565b60008115159050919050565b6000819050919050565b6000819050919050565b600060ff8216905091905056fea265627a7a72305820ec2846469d1ff2344bf968ef261ebb015ca11568308f70d639a8b504442fb9f36c6578706572696d656e74616cf50037",
  "source": "pragma solidity >=0.5.3 <0.6.0;\npragma experimental ABIEncoderV2;\nimport \"./claimTypes/IdentityClaimTypes.sol\";\nimport \"./IdentityClaimsVerifier.sol\";\n\ncontract MetaCoin is IdentityClaimTypes {\n  address owner;\n  IdentityClaimsVerifier claimsVerifier;\n  mapping (address => uint) balances;\n  mapping (address => uint) verifiers;\n  mapping (address => uint) whitelist;\n\n  event Transfer(address indexed _from, address indexed _to, uint256 _value);\n\n  modifier onlyOwner {\n    require(\n      msg.sender == owner, \"Only owner can call this function.\"\n    );\n    _;\n  }\n\n  modifier onlyWhitelisted {\n    require(\n      whitelist[msg.sender] > 0, \"Only whitelisted users can call this function.\"\n    );\n    _;\n  }\n\n  constructor(address _verifier) public {\n    owner = msg.sender;\n    claimsVerifier = IdentityClaimsVerifier(_verifier);\n    balances[msg.sender] = 10000;\n    whitelist[msg.sender] = block.timestamp;\n  }\n\n  function authorizeVerifier(address verifier) external onlyOwner {\n    verifiers[verifier] = block.timestamp;\n  }\n\n  function deauthorizeVerifier(address verifier) external onlyOwner {\n    verifiers[verifier] = 0;\n  }\n\n  function authorize(VerifiedIdentity memory claim, uint8 v, bytes32 r, bytes32 s) public returns (bool) {\n    require(claimsVerifier.verify(claim, v, r, s), \"Could not Verify Identity Claim\");\n    require(verifiers[claim.issuer] > 0, \"Issuer of claim is not Trusted\");\n    require(claim.loa >= 2, \"Level of Assurance is required to be 2 or above\");\n    whitelist[claim.subject] = block.timestamp;\n    return true;\n  }\n\n  function sendCoin(address receiver, uint amount) public onlyWhitelisted returns(bool sufficient) {\n    require(\n      whitelist[receiver] > 0, \"Only whitelisted users can receive tokens\"\n    );\n    if (balances[msg.sender] < amount) return false;\n    balances[msg.sender] -= amount;\n    balances[receiver] += amount;\n    emit Transfer(msg.sender, receiver, amount);\n    return true;\n  }\n\n  function getBalance(address addr) public view returns(uint) {\n    return balances[addr];\n  }\n}\n",
  "sourcePath": "/Users/pelleb/code/consensys/eip712VerifiableClaims/contracts/MetaCoin.sol",
  "compiler": {
    "name": "solc",
    "version": "0.5.3+commit.10d17f24.Emscripten.clang"
  },
  "schemaVersion": "3.0.2",
  "updatedAt": "2019-03-02T00:30:33.544Z",
  "devdoc": {
    "methods": {}
  },
  "userdoc": {
    "methods": {}
  }
}