{
  "contractName": "OwnershipProofVerifier",
  "abi": [
    {
      "inputs": [
        {
          "name": "_registryAddress",
          "type": "address"
        }
      ],
      "payable": false,
      "stateMutability": "nonpayable",
      "type": "constructor"
    },
    {
      "constant": true,
      "inputs": [
        {
          "components": [
            {
              "name": "subject",
              "type": "address"
            },
            {
              "name": "validFrom",
              "type": "uint256"
            },
            {
              "name": "validTo",
              "type": "uint256"
            }
          ],
          "name": "claim",
          "type": "tuple"
        },
        {
          "name": "v",
          "type": "uint8"
        },
        {
          "name": "r",
          "type": "bytes32"
        },
        {
          "name": "s",
          "type": "bytes32"
        }
      ],
      "name": "ownedAddress",
      "outputs": [
        {
          "name": "",
          "type": "address"
        }
      ],
      "payable": false,
      "stateMutability": "view",
      "type": "function"
    },
    {
      "constant": true,
      "inputs": [
        {
          "components": [
            {
              "name": "issuer",
              "type": "address"
            },
            {
              "name": "subject",
              "type": "address"
            },
            {
              "name": "validFrom",
              "type": "uint256"
            },
            {
              "name": "validTo",
              "type": "uint256"
            }
          ],
          "name": "claim",
          "type": "tuple"
        },
        {
          "name": "v",
          "type": "uint8"
        },
        {
          "name": "r",
          "type": "bytes32"
        },
        {
          "name": "s",
          "type": "bytes32"
        }
      ],
      "name": "verify",
      "outputs": [
        {
          "name": "",
          "type": "bool"
        }
      ],
      "payable": false,
      "stateMutability": "view",
      "type": "function"
    }
  ],
  "bytecode": "0x60806040523480156200001157600080fd5b5060405160208062000d4d8339810180604052620000339190810190620001cd565b6040805190810160405280601481526020017f4549503731324964656e74697479436c61696d730000000000000000000000008152506040805190810160405280600181526020017f310000000000000000000000000000000000000000000000000000000000000081525060013084620000f46080604051908101604052808781526020018681526020018581526020018473ffffffffffffffffffffffffffffffffffffffff1681525062000146640100000000026401000000009004565b600181905550806000806101000a81548173ffffffffffffffffffffffffffffffffffffffff021916908373ffffffffffffffffffffffffffffffffffffffff160217905550505050505050620002e5565b6000604051808062000cfb6052913960520190506040518091039020826000015180519060200120836020015180519060200120846040015185606001516040516020016200019a9594939291906200022c565b604051602081830303815290604052805190602001209050919050565b6000620001c58251620002d1565b905092915050565b600060208284031215620001e057600080fd5b6000620001f084828501620001b7565b91505092915050565b620002048162000289565b82525050565b62000215816200029d565b82525050565b6200022681620002c7565b82525050565b600060a0820190506200024360008301886200020a565b6200025260208301876200020a565b6200026160408301866200020a565b6200027060608301856200021b565b6200027f6080830184620001f9565b9695505050505050565b60006200029682620002a7565b9050919050565b6000819050919050565b600073ffffffffffffffffffffffffffffffffffffffff82169050919050565b6000819050919050565b6000620002de82620002a7565b9050919050565b610a0680620002f56000396000f3fe608060405234801561001057600080fd5b5060043610610053576000357c0100000000000000000000000000000000000000000000000000000000900480637a7e872e14610058578063df35a85614610088575b600080fd5b610072600480360361006d9190810190610651565b6100b8565b60405161007f919061074d565b60405180910390f35b6100a2600480360361009d91908101906105ee565b6101e3565b6040516100af919061079d565b60405180910390f35b6000806001546100c78761027f565b60405160200180807f190100000000000000000000000000000000000000000000000000000000000081525060020183815260200182815260200192505050604051602081830303815290604052805190602001209050610130866020015187604001516102d9565b1515610171576040517f08c379a000000000000000000000000000000000000000000000000000000000815260040161016890610850565b60405180910390fd5b60018186868660405160008152602001604052604051808581526020018460ff1660ff1681526020018381526020018281526020019450505050506020604051602081039080840390855afa1580156101ce573d6000803e3d6000fd5b50505060206040510351915050949350505050565b6000806001546101f2876102f2565b60405160200180807f19010000000000000000000000000000000000000000000000000000000000008152506002018381526020018281526020019250505060405160208183030381529060405280519060200120905061025a818760000151878787610352565b80156102745750610273866040015187606001516102d9565b5b915050949350505050565b6000604051808061092f60439139604301905060405180910390208260000151836020015184604001516040516020016102bc949392919061080b565b604051602081830303815290604052805190602001209050919050565b60004283101580156102ea57508142105b905092915050565b60006040518080610972605b9139605b019050604051809103902082600001518360200151846040015185606001516040516020016103359594939291906107b8565b604051602081830303815290604052805190602001209050919050565b60008060009054906101000a900473ffffffffffffffffffffffffffffffffffffffff1673ffffffffffffffffffffffffffffffffffffffff1663622b2a3c8660018988888860405160008152602001604052604051808581526020018460ff1660ff1681526020018381526020018281526020019450505050506020604051602081039080840390855afa1580156103ef573d6000803e3d6000fd5b505050602060405103516040518363ffffffff167c0100000000000000000000000000000000000000000000000000000000028152600401610432929190610768565b60206040518083038186803b15801561044a57600080fd5b505afa15801561045e573d6000803e3d6000fd5b505050506040513d601f19601f8201168201806040525061048291908101906105c5565b905095945050505050565b600061049982356108ef565b905092915050565b60006104ad8251610901565b905092915050565b60006104c1823561090d565b905092915050565b6000608082840312156104db57600080fd5b6104e56080610870565b905060006104f58482850161048d565b60008301525060206105098482850161048d565b602083015250604061051d8482850161059d565b60408301525060606105318482850161059d565b60608301525092915050565b60006060828403121561054f57600080fd5b6105596060610870565b905060006105698482850161048d565b600083015250602061057d8482850161059d565b60208301525060406105918482850161059d565b60408301525092915050565b60006105a98235610917565b905092915050565b60006105bd8235610921565b905092915050565b6000602082840312156105d757600080fd5b60006105e5848285016104a1565b91505092915050565b60008060008060e0858703121561060457600080fd5b6000610612878288016104c9565b9450506080610623878288016105b1565b93505060a0610634878288016104b5565b92505060c0610645878288016104b5565b91505092959194509250565b60008060008060c0858703121561066757600080fd5b60006106758782880161053d565b9450506060610686878288016105b1565b9350506080610697878288016104b5565b92505060a06106a8878288016104b5565b91505092959194509250565b6106bd8161089d565b82525050565b6106cc816108af565b82525050565b6106db816108bb565b82525050565b6000601b82527f696e76616c69642069737375616e63652074696d657374616d707300000000006020830152604082019050919050565b7f766572694b657900000000000000000000000000000000000000000000000000815250565b610747816108e5565b82525050565b600060208201905061076260008301846106b4565b92915050565b600060608201905061077d60008301856106b4565b61078960208301610718565b61079660408301846106b4565b9392505050565b60006020820190506107b260008301846106c3565b92915050565b600060a0820190506107cd60008301886106d2565b6107da60208301876106b4565b6107e760408301866106b4565b6107f4606083018561073e565b610801608083018461073e565b9695505050505050565b600060808201905061082060008301876106d2565b61082d60208301866106b4565b61083a604083018561073e565b610847606083018461073e565b95945050505050565b60006020820190508181036000830152610869816106e1565b9050919050565b6000604051905081810181811067ffffffffffffffff8211171561089357600080fd5b8060405250919050565b60006108a8826108c5565b9050919050565b60008115159050919050565b6000819050919050565b600073ffffffffffffffffffffffffffffffffffffffff82169050919050565b6000819050919050565b60006108fa826108c5565b9050919050565b60008115159050919050565b6000819050919050565b6000819050919050565b600060ff8216905091905056fe4f776e65727368697050726f6f662861646472657373207375626a6563742c2075696e743235362076616c696446726f6d2c2075696e743235362076616c6964546f29436f6e74726163744f776e65727368697050726f6f662861646472657373206973737565722c2061646472657373207375626a6563742c2075696e743235362076616c696446726f6d2c2075696e743235362076616c6964546f29a265627a7a72305820832117a0f1097e949c4d9eaddb10cfe77db89e8f935d3d60151ecaab6b9adfe26c6578706572696d656e74616cf50037454950373132446f6d61696e28737472696e67206e616d652c737472696e672076657273696f6e2c75696e7432353620636861696e49642c6164647265737320766572696679696e67436f6e747261637429",
  "source": "pragma solidity >=0.5.3 <0.6.0;\npragma experimental ABIEncoderV2;\nimport \"./AbstractClaimsVerifier.sol\";\nimport \"./claimTypes/OwnershipProofTypes.sol\";\n\ncontract OwnershipProofVerifier is AbstractClaimsVerifier, OwnershipProofTypes {\n\n  constructor (address _registryAddress) AbstractClaimsVerifier(\"EIP712IdentityClaims\", \"1\", 1, address(this), _registryAddress) public {}\n\n  function hash(OwnershipProof memory claim) internal pure returns (bytes32) {\n    return keccak256(\n      abi.encode(\n        OWNERSHIP_PROOF_TYPEHASH,\n        claim.subject,\n        claim.validFrom,\n        claim.validTo\n      )\n    );\n  }\n\n  function hash(ContractOwnershipProof memory claim) internal pure returns (bytes32) {\n    return keccak256(\n      abi.encode(\n        CONTRACT_OWNERSHIP_PROOF_TYPEHASH,\n        claim.issuer,\n        claim.subject,\n        claim.validFrom,\n        claim.validTo\n      )\n    );\n  }\n\n  function ownedAddress(OwnershipProof memory claim, uint8 v, bytes32 r, bytes32 s) public view returns (address) {\n    bytes32 digest = keccak256(\n      abi.encodePacked(\n        \"\\x19\\x01\",\n        DOMAIN_SEPARATOR,\n        hash(claim)\n      )\n    );\n    require(valid(claim.validFrom, claim.validTo), \"invalid issuance timestamps\");\n    return ecrecover(digest, v, r, s);\n  }\n\n\n  function verify(ContractOwnershipProof memory claim, uint8 v, bytes32 r, bytes32 s) public view returns (bool) {\n    bytes32 digest = keccak256(\n      abi.encodePacked(\n        \"\\x19\\x01\",\n        DOMAIN_SEPARATOR,\n        hash(claim)\n      )\n    );\n    return verifyIssuer(digest, claim.issuer, v, r, s) && valid(claim.validFrom, claim.validTo);\n  }\n\n}",
  "sourcePath": "/Users/pelleb/code/consensys/eip712VerifiableClaims/contracts/OwnershipProofVerifier.sol",
  "compiler": {
    "name": "solc",
    "version": "0.5.3+commit.10d17f24.Emscripten.clang"
  },
  "schemaVersion": "3.0.2",
  "updatedAt": "2019-03-02T16:08:25.065Z",
  "devdoc": {
    "methods": {}
  },
  "userdoc": {
    "methods": {}
  }
}